{"abi":[{"type":"constructor","inputs":[{"name":"_sponsor","type":"address","internalType":"address payable"},{"name":"_threshold","type":"uint256","internalType":"uint256"},{"name":"_name","type":"string","internalType":"string"}],"stateMutability":"nonpayable"},{"type":"function","name":"authorizeContributor","inputs":[{"name":"contributor","type":"address","internalType":"address"}],"outputs":[],"stateMutability":"nonpayable"},{"type":"function","name":"contribute","inputs":[],"outputs":[],"stateMutability":"payable"},{"type":"function","name":"contributions","inputs":[{"name":"","type":"address","internalType":"address"}],"outputs":[{"name":"","type":"uint256","internalType":"uint256"}],"stateMutability":"view"},{"type":"function","name":"name","inputs":[],"outputs":[{"name":"","type":"string","internalType":"string"}],"stateMutability":"view"},{"type":"function","name":"refund","inputs":[{"name":"amount","type":"uint256","internalType":"uint256"}],"outputs":[],"stateMutability":"nonpayable"},{"type":"function","name":"sponsor","inputs":[],"outputs":[{"name":"","type":"address","internalType":"address"}],"stateMutability":"view"},{"type":"function","name":"threshold","inputs":[],"outputs":[{"name":"","type":"uint256","internalType":"uint256"}],"stateMutability":"view"},{"type":"function","name":"totalContributions","inputs":[],"outputs":[{"name":"","type":"uint256","internalType":"uint256"}],"stateMutability":"view"},{"type":"function","name":"withdraw","inputs":[{"name":"amount","type":"uint256","internalType":"uint256"}],"outputs":[],"stateMutability":"nonpayable"},{"type":"event","name":"ContributionReceived","inputs":[{"name":"contributor","type":"address","indexed":false,"internalType":"address"},{"name":"amount","type":"uint256","indexed":false,"internalType":"uint256"}],"anonymous":false},{"type":"event","name":"ContributorAuthorized","inputs":[{"name":"contributor","type":"address","indexed":false,"internalType":"address"}],"anonymous":false},{"type":"event","name":"FundsWithdrawn","inputs":[{"name":"sponsor","type":"address","indexed":false,"internalType":"address"},{"name":"amount","type":"uint256","indexed":false,"internalType":"uint256"}],"anonymous":false},{"type":"event","name":"RefundIssued","inputs":[{"name":"contributor","type":"address","indexed":false,"internalType":"address"},{"name":"amount","type":"uint256","indexed":false,"internalType":"uint256"}],"anonymous":false}],"bytecode":{"object":"0x60806040523480156200001157600080fd5b5060405162000bfe38038062000bfe833981016040819052620000349162000094565b600180546001600160a01b0319166001600160a01b0385161790556000829055600262000062828262000224565b5050600060045550506005805460ff19166001179055620002f0565b634e487b7160e01b600052604160045260246000fd5b600080600060608486031215620000aa57600080fd5b83516001600160a01b0381168114620000c257600080fd5b60208581015160408701519295509350906001600160401b0380821115620000e957600080fd5b818701915087601f830112620000fe57600080fd5b8151818111156200011357620001136200007e565b604051601f8201601f19908116603f011681019083821181831017156200013e576200013e6200007e565b816040528281528a868487010111156200015757600080fd5b600093505b828410156200017b57848401860151818501870152928501926200015c565b60008684830101528096505050505050509250925092565b600181811c90821680620001a857607f821691505b602082108103620001c957634e487b7160e01b600052602260045260246000fd5b50919050565b601f8211156200021f576000816000526020600020601f850160051c81016020861015620001fa5750805b601f850160051c820191505b818110156200021b5782815560010162000206565b5050505b505050565b81516001600160401b038111156200024057620002406200007e565b620002588162000251845462000193565b84620001cf565b602080601f831160018114620002905760008415620002775750858301515b600019600386901b1c1916600185901b1785556200021b565b600085815260208120601f198616915b82811015620002c157888601518255948401946001909101908401620002a0565b5085821015620002e05787850151600019600388901b60f8161c191681555b5050505050600190811b01905550565b6108fe80620003006000396000f3fe6080604052600436106100865760003560e01c806342cde4e81161005957806342cde4e81461011c57806342e94c901461013257806377c936621461015f578063b9da4a4214610197578063d7bb99ba146101b757600080fd5b806306fdde031461008b578063278ecde1146100b65780632e1a7d4d146100d857806337c08923146100f8575b600080fd5b34801561009757600080fd5b506100a06101bf565b6040516100ad91906107ba565b60405180910390f35b3480156100c257600080fd5b506100d66100d1366004610809565b61024d565b005b3480156100e457600080fd5b506100d66100f3366004610809565b6103d3565b34801561010457600080fd5b5061010e60045481565b6040519081526020016100ad565b34801561012857600080fd5b5061010e60005481565b34801561013e57600080fd5b5061010e61014d366004610822565b60036020526000908152604090205481565b34801561016b57600080fd5b5060015461017f906001600160a01b031681565b6040516001600160a01b0390911681526020016100ad565b3480156101a357600080fd5b506100d66101b2366004610822565b6105ab565b6100d6610667565b600280546101cc90610852565b80601f01602080910402602001604051908101604052809291908181526020018280546101f890610852565b80156102455780601f1061021a57610100808354040283529160200191610245565b820191906000526020600020905b81548152906001019060200180831161022857829003601f168201915b505050505081565b600054600454106102dd5760405162461bcd60e51b815260206004820152604960248201527f5468652063616d706169676e206861732072656163686564206974732074687260448201527f6573686f6c642c20736f20726566756e647320617265206e6f206c6f6e67657260648201526820706f737369626c6560b81b608482015260a4015b60405180910390fd5b336000908152600360205260409020548082111561034d5760405162461bcd60e51b815260206004820152602760248201527f526566756e6420616d6f756e74206973206d6f7265207468616e20636f6e747260448201526634b13aba34b7b760c91b60648201526084016102d4565b61035782826108a2565b33600081815260036020526040808220939093559151909184156108fc02918591818181858888f19350505050158015610395573d6000803e3d6000fd5b5060408051338152602081018490527fa171b6942063c6f2800ce40a780edce37baa2b618571b11eedd1e69e626e7d76910160405180910390a15050565b6001546001600160a01b031633146104395760405162461bcd60e51b815260206004820152602360248201527f4f6e6c79207468652073706f6e736f722063616e2077697468647261772066756044820152626e647360e81b60648201526084016102d4565b60005460045410156104ca5760405162461bcd60e51b815260206004820152604e60248201527f417320746865206f7267616e697a65722c20796f752063616e206f6e6c79207760448201527f69746864726177206f6e63652074686520636f6e747269627574696f6e20746860648201526d1c995cda1bdb19081a5cc81b595d60921b608482015260a4016102d4565b478111156105265760405162461bcd60e51b815260206004820152602360248201527f4d6f72652066756e647320726571756573746564207468616e20617661696c61604482015262626c6560e81b60648201526084016102d4565b6001546040516001600160a01b039091169082156108fc029083906000818181858888f19350505050158015610560573d6000803e3d6000fd5b50600154604080516001600160a01b039092168252602082018390527feaff4b37086828766ad3268786972c0cd24259d4c87a80f9d3963a3c3d999b0d91015b60405180910390a150565b6001546001600160a01b031633146106225760405162461bcd60e51b815260206004820152603460248201527f4f6e6c79207468652063616d706169676e2073706f6e736f722063616e20617560448201527374686f72697a6520636f6e7472696275746f727360601b60648201526084016102d4565b61062d60068261074d565b506040516001600160a01b03821681527f21732f0772556fe8cfb64e110a834a1a473319ec878a2cbe6c90e165e1b95cb7906020016105a0565b60055460ff166106d65760405162461bcd60e51b815260206004820152603460248201527f5468652063616d706169676e2069736e277420616363657074696e6720636f6e604482015273747269627574696f6e73207269676874206e6f7760601b60648201526084016102d4565b33600090815260036020526040812080543492906106f59084906108b5565b92505081905550346004600082825461070e91906108b5565b9091555050604080513381523460208201527f1bb460ccaaf70fbacfec17a376f8acbd278c1405590ffcc8ebe4b88daf4f64ad910160405180910390a1565b6000610762836001600160a01b03841661076b565b90505b92915050565b60008181526001830160205260408120546107b257508154600181810184556000848152602080822090930184905584548482528286019093526040902091909155610765565b506000610765565b60006020808352835180602085015260005b818110156107e8578581018301518582016040015282016107cc565b506000604082860101526040601f19601f8301168501019250505092915050565b60006020828403121561081b57600080fd5b5035919050565b60006020828403121561083457600080fd5b81356001600160a01b038116811461084b57600080fd5b9392505050565b600181811c9082168061086657607f821691505b60208210810361088657634e487b7160e01b600052602260045260246000fd5b50919050565b634e487b7160e01b600052601160045260246000fd5b818103818111156107655761076561088c565b808201808211156107655761076561088c56fea2646970667358221220ea0ec309eb96c9f840c37a318b578cafc7ae7719a32b81c24454f70cb70dcd2864736f6c63430008170033","linkReferences":{}},"methodIdentifiers":{"authorizeContributor(address)":"b9da4a42","contribute()":"d7bb99ba","contributions(address)":"42e94c90","name()":"06fdde03","refund(uint256)":"278ecde1","sponsor()":"77c93662","threshold()":"42cde4e8","totalContributions()":"37c08923","withdraw(uint256)":"2e1a7d4d"},"id":28}