{"abi":[{"type":"constructor","inputs":[{"name":"_sponsor","type":"address","internalType":"address payable"},{"name":"_threshold","type":"uint256","internalType":"uint256"},{"name":"_name","type":"string","internalType":"string"},{"name":"_token","type":"address","internalType":"contract IERC20"}],"stateMutability":"nonpayable"},{"type":"function","name":"addTier","inputs":[{"name":"_price","type":"uint256","internalType":"uint256"},{"name":"_name","type":"string","internalType":"string"},{"name":"_limit","type":"uint256","internalType":"uint256"}],"outputs":[],"stateMutability":"nonpayable"},{"type":"function","name":"authorizeContributor","inputs":[{"name":"contributor","type":"address","internalType":"address"}],"outputs":[],"stateMutability":"nonpayable"},{"type":"function","name":"contribute","inputs":[{"name":"_amount","type":"uint256","internalType":"uint256"}],"outputs":[],"stateMutability":"nonpayable"},{"type":"function","name":"contributions","inputs":[{"name":"","type":"address","internalType":"address"}],"outputs":[{"name":"","type":"uint256","internalType":"uint256"}],"stateMutability":"view"},{"type":"function","name":"name","inputs":[],"outputs":[{"name":"","type":"string","internalType":"string"}],"stateMutability":"view"},{"type":"function","name":"refund","inputs":[{"name":"amount","type":"uint256","internalType":"uint256"}],"outputs":[],"stateMutability":"nonpayable"},{"type":"function","name":"sponsor","inputs":[],"outputs":[{"name":"","type":"address","internalType":"address"}],"stateMutability":"view"},{"type":"function","name":"threshold","inputs":[],"outputs":[{"name":"","type":"uint256","internalType":"uint256"}],"stateMutability":"view"},{"type":"function","name":"tiers","inputs":[{"name":"","type":"uint256","internalType":"uint256"}],"outputs":[{"name":"price","type":"uint256","internalType":"uint256"},{"name":"name","type":"string","internalType":"string"},{"name":"limit","type":"uint256","internalType":"uint256"}],"stateMutability":"view"},{"type":"function","name":"token","inputs":[],"outputs":[{"name":"","type":"address","internalType":"contract IERC20"}],"stateMutability":"view"},{"type":"function","name":"totalContributions","inputs":[],"outputs":[{"name":"","type":"uint256","internalType":"uint256"}],"stateMutability":"view"},{"type":"function","name":"withdraw","inputs":[{"name":"amount","type":"uint256","internalType":"uint256"}],"outputs":[],"stateMutability":"nonpayable"},{"type":"event","name":"ContributionReceived","inputs":[{"name":"contributor","type":"address","indexed":false,"internalType":"address"},{"name":"amount","type":"uint256","indexed":false,"internalType":"uint256"}],"anonymous":false},{"type":"event","name":"ContributorAuthorized","inputs":[{"name":"contributor","type":"address","indexed":false,"internalType":"address"}],"anonymous":false},{"type":"event","name":"FundsWithdrawn","inputs":[{"name":"sponsor","type":"address","indexed":false,"internalType":"address"},{"name":"amount","type":"uint256","indexed":false,"internalType":"uint256"}],"anonymous":false},{"type":"event","name":"RefundIssued","inputs":[{"name":"contributor","type":"address","indexed":false,"internalType":"address"},{"name":"amount","type":"uint256","indexed":false,"internalType":"uint256"}],"anonymous":false}],"bytecode":{"object":"0x60806040523480156200001157600080fd5b50604051620011e7380380620011e78339810160408190526200003491620000df565b600180546001600160a01b0319166001600160a01b0386161790556000839055600262000062838262000277565b50600380546001600160a01b0319166001600160a01b039290921691909117905550506000600555506006805460ff1916600117905562000343565b6001600160a01b0381168114620000b457600080fd5b50565b634e487b7160e01b600052604160045260246000fd5b8051620000da816200009e565b919050565b60008060008060808587031215620000f657600080fd5b845162000103816200009e565b60208681015160408801519296509450906001600160401b03808211156200012a57600080fd5b818801915088601f8301126200013f57600080fd5b815181811115620001545762000154620000b7565b604051601f8201601f19908116603f011681019083821181831017156200017f576200017f620000b7565b816040528281528b868487010111156200019857600080fd5b600093505b82841015620001bc57848401860151818501870152928501926200019d565b6000868483010152809750505050505050620001db60608601620000cd565b905092959194509250565b600181811c90821680620001fb57607f821691505b6020821081036200021c57634e487b7160e01b600052602260045260246000fd5b50919050565b601f82111562000272576000816000526020600020601f850160051c810160208610156200024d5750805b601f850160051c820191505b818110156200026e5782815560010162000259565b5050505b505050565b81516001600160401b03811115620002935762000293620000b7565b620002ab81620002a48454620001e6565b8462000222565b602080601f831160018114620002e35760008415620002ca5750858301515b600019600386901b1c1916600185901b1785556200026e565b600085815260208120601f198616915b828110156200031457888601518255948401946001909101908401620002f3565b5085821015620003335787850151600019600388901b60f8161c191681555b5050505050600190811b01905550565b610e9480620003536000396000f3fe608060405234801561001057600080fd5b50600436106100b45760003560e01c806342e94c901161007157806342e94c90146101415780636d8dc5ea1461016157806377c9366214610174578063b9da4a421461019f578063c1cbbca7146101b2578063fc0c546a146101c557600080fd5b8063039af9eb146100b957806306fdde03146100e4578063278ecde1146100f95780632e1a7d4d1461010e57806337c089231461012157806342cde4e814610138575b600080fd5b6100cc6100c7366004610af7565b6101d8565b6040516100db93929190610b56565b60405180910390f35b6100ec610296565b6040516100db9190610b7f565b61010c610107366004610af7565b610324565b005b61010c61011c366004610af7565b6104f6565b61012a60055481565b6040519081526020016100db565b61012a60005481565b61012a61014f366004610b92565b60046020526000908152604090205481565b61010c61016f366004610bd8565b610778565b600154610187906001600160a01b031681565b6040516001600160a01b0390911681526020016100db565b61010c6101ad366004610b92565b610870565b61010c6101c0366004610af7565b61092c565b600354610187906001600160a01b031681565b600981815481106101e857600080fd5b6000918252602090912060039091020180546001820180549193509061020d90610c9c565b80601f016020809104026020016040519081016040528092919081815260200182805461023990610c9c565b80156102865780601f1061025b57610100808354040283529160200191610286565b820191906000526020600020905b81548152906001019060200180831161026957829003601f168201915b5050505050908060020154905083565b600280546102a390610c9c565b80601f01602080910402602001604051908101604052809291908181526020018280546102cf90610c9c565b801561031c5780601f106102f15761010080835404028352916020019161031c565b820191906000526020600020905b8154815290600101906020018083116102ff57829003601f168201915b505050505081565b600054600554106103b45760405162461bcd60e51b815260206004820152604960248201527f5468652063616d706169676e206861732072656163686564206974732074687260448201527f6573686f6c642c20736f20726566756e647320617265206e6f206c6f6e67657260648201526820706f737369626c6560b81b608482015260a4015b60405180910390fd5b33600090815260046020526040902054808211156104245760405162461bcd60e51b815260206004820152602760248201527f526566756e6420616d6f756e74206973206d6f7265207468616e20636f6e747260448201526634b13aba34b7b760c91b60648201526084016103ab565b61042e8282610cec565b3360008181526004602081905260409182902093909355600354905163a9059cbb60e01b815292830191909152602482018490526001600160a01b03169063a9059cbb906044016020604051808303816000875af1158015610494573d6000803e3d6000fd5b505050506040513d601f19601f820116820180604052508101906104b89190610cff565b5060408051338152602081018490527fa171b6942063c6f2800ce40a780edce37baa2b618571b11eedd1e69e626e7d76910160405180910390a15050565b6001546001600160a01b0316331461055c5760405162461bcd60e51b815260206004820152602360248201527f4f6e6c79207468652073706f6e736f722063616e2077697468647261772066756044820152626e647360e81b60648201526084016103ab565b60005460055410156105ed5760405162461bcd60e51b815260206004820152604e60248201527f417320746865206f7267616e697a65722c20796f752063616e206f6e6c79207760448201527f69746864726177206f6e63652074686520636f6e747269627574696f6e20746860648201526d1c995cda1bdb19081a5cc81b595d60921b608482015260a4016103ab565b6003546040516370a0823160e01b81523060048201526001600160a01b03909116906370a0823190602401602060405180830381865afa158015610635573d6000803e3d6000fd5b505050506040513d601f19601f820116820180604052508101906106599190610d21565b8111156106b45760405162461bcd60e51b815260206004820152602360248201527f4d6f72652066756e647320726571756573746564207468616e20617661696c61604482015262626c6560e81b60648201526084016103ab565b60035460015460405163a9059cbb60e01b81526001600160a01b0391821660048201526024810184905291169063a9059cbb906044016020604051808303816000875af1158015610709573d6000803e3d6000fd5b505050506040513d601f19601f8201168201806040525081019061072d9190610cff565b50600154604080516001600160a01b039092168252602082018390527feaff4b37086828766ad3268786972c0cd24259d4c87a80f9d3963a3c3d999b0d91015b60405180910390a150565b6001546001600160a01b031633146107d25760405162461bcd60e51b815260206004820152601e60248201527f4f6e6c79207468652073706f6e736f722063616e20616464207469657273000060448201526064016103ab565b604080516060810182528481526020810184815291810183905260098054600181018255600091909152815160039091027f6e1540171b6c0c960b71a7020d9f60077f6af931a8bbf590da0223dacf75c7af81019182559251919290917f6e1540171b6c0c960b71a7020d9f60077f6af931a8bbf590da0223dacf75c7b09091019061085e9082610d8b565b50604082015181600201555050505050565b6001546001600160a01b031633146108e75760405162461bcd60e51b815260206004820152603460248201527f4f6e6c79207468652063616d706169676e2073706f6e736f722063616e20617560448201527374686f72697a6520636f6e7472696275746f727360601b60648201526084016103ab565b6108f2600782610a8a565b506040516001600160a01b03821681527f21732f0772556fe8cfb64e110a834a1a473319ec878a2cbe6c90e165e1b95cb79060200161076d565b60065460ff1661099b5760405162461bcd60e51b815260206004820152603460248201527f5468652063616d706169676e2069736e277420616363657074696e6720636f6e604482015273747269627574696f6e73207269676874206e6f7760601b60648201526084016103ab565b6003546040516323b872dd60e01b8152336004820152306024820152604481018390526001600160a01b03909116906323b872dd906064016020604051808303816000875af11580156109f2573d6000803e3d6000fd5b505050506040513d601f19601f82011682018060405250810190610a169190610cff565b503360009081526004602052604081208054839290610a36908490610e4b565b925050819055508060056000828254610a4f9190610e4b565b909155505060408051338152602081018390527f1bb460ccaaf70fbacfec17a376f8acbd278c1405590ffcc8ebe4b88daf4f64ad910161076d565b6000610a9f836001600160a01b038416610aa8565b90505b92915050565b6000818152600183016020526040812054610aef57508154600181810184556000848152602080822090930184905584548482528286019093526040902091909155610aa2565b506000610aa2565b600060208284031215610b0957600080fd5b5035919050565b6000815180845260005b81811015610b3657602081850181015186830182015201610b1a565b506000602082860101526020601f19601f83011685010191505092915050565b838152606060208201526000610b6f6060830185610b10565b9050826040830152949350505050565b602081526000610a9f6020830184610b10565b600060208284031215610ba457600080fd5b81356001600160a01b0381168114610bbb57600080fd5b9392505050565b634e487b7160e01b600052604160045260246000fd5b600080600060608486031215610bed57600080fd5b83359250602084013567ffffffffffffffff80821115610c0c57600080fd5b818601915086601f830112610c2057600080fd5b813581811115610c3257610c32610bc2565b604051601f8201601f19908116603f01168101908382118183101715610c5a57610c5a610bc2565b81604052828152896020848701011115610c7357600080fd5b826020860160208301376000602084830101528096505050505050604084013590509250925092565b600181811c90821680610cb057607f821691505b602082108103610cd057634e487b7160e01b600052602260045260246000fd5b50919050565b634e487b7160e01b600052601160045260246000fd5b81810381811115610aa257610aa2610cd6565b600060208284031215610d1157600080fd5b81518015158114610bbb57600080fd5b600060208284031215610d3357600080fd5b5051919050565b601f821115610d86576000816000526020600020601f850160051c81016020861015610d635750805b601f850160051c820191505b81811015610d8257828155600101610d6f565b5050505b505050565b815167ffffffffffffffff811115610da557610da5610bc2565b610db981610db38454610c9c565b84610d3a565b602080601f831160018114610dee5760008415610dd65750858301515b600019600386901b1c1916600185901b178555610d82565b600085815260208120601f198616915b82811015610e1d57888601518255948401946001909101908401610dfe565b5085821015610e3b5787850151600019600388901b60f8161c191681555b5050505050600190811b01905550565b80820180821115610aa257610aa2610cd656fea26469706673582212203132c13d921503d783983d046dd1bb2d885245d7c91eaca18ebeaa72ce6ed4ab64736f6c63430008170033","linkReferences":{}},"methodIdentifiers":{"addTier(uint256,string,uint256)":"6d8dc5ea","authorizeContributor(address)":"b9da4a42","contribute(uint256)":"c1cbbca7","contributions(address)":"42e94c90","name()":"06fdde03","refund(uint256)":"278ecde1","sponsor()":"77c93662","threshold()":"42cde4e8","tiers(uint256)":"039af9eb","token()":"fc0c546a","totalContributions()":"37c08923","withdraw(uint256)":"2e1a7d4d"},"id":29}