{"abi":[{"type":"function","name":"createCampaign","inputs":[{"name":"_threshold","type":"uint256","internalType":"uint256"},{"name":"_name","type":"string","internalType":"string"}],"outputs":[],"stateMutability":"nonpayable"},{"type":"function","name":"createCampaignERC20","inputs":[{"name":"_threshold","type":"uint256","internalType":"uint256"},{"name":"_name","type":"string","internalType":"string"},{"name":"_token","type":"address","internalType":"contract IERC20"}],"outputs":[],"stateMutability":"nonpayable"},{"type":"function","name":"deployedCampaigns","inputs":[{"name":"","type":"uint256","internalType":"uint256"}],"outputs":[{"name":"","type":"address","internalType":"address"}],"stateMutability":"view"},{"type":"function","name":"deployedERC20Campaigns","inputs":[{"name":"","type":"uint256","internalType":"uint256"}],"outputs":[{"name":"","type":"address","internalType":"address"}],"stateMutability":"view"},{"type":"function","name":"getDeployedCampaigns","inputs":[],"outputs":[{"name":"","type":"address[]","internalType":"address[]"}],"stateMutability":"view"},{"type":"function","name":"getDeployedERC20Campaigns","inputs":[],"outputs":[{"name":"","type":"address[]","internalType":"address[]"}],"stateMutability":"view"},{"type":"event","name":"CampaignCreated","inputs":[{"name":"campaignAddress","type":"address","indexed":false,"internalType":"address"},{"name":"sponsor","type":"address","indexed":false,"internalType":"address"},{"name":"threshold","type":"uint256","indexed":false,"internalType":"uint256"},{"name":"name","type":"string","indexed":false,"internalType":"string"}],"anonymous":false},{"type":"event","name":"CampaignERC20Created","inputs":[{"name":"campaignAddress","type":"address","indexed":false,"internalType":"address"},{"name":"sponsor","type":"address","indexed":false,"internalType":"address"},{"name":"threshold","type":"uint256","indexed":false,"internalType":"uint256"},{"name":"name","type":"string","indexed":false,"internalType":"string"},{"name":"tokenAddress","type":"address","indexed":false,"internalType":"address"}],"anonymous":false}],"bytecode":{"object":"0x608060405234801561001057600080fd5b506124fa806100206000396000f3fe60806040523480156200001157600080fd5b50600436106200006a5760003560e01c8063051fda22146200006f578063339d50a514620000885780634220d65614620000bc5780634acb9d4f14620000d3578063c802d5c314620000ec578063e0cdb20714620000f6575b600080fd5b620000866200008036600462000481565b6200010d565b005b6200009f62000099366004620004ed565b620001e6565b6040516001600160a01b0390911681526020015b60405180910390f35b62000086620000cd36600462000507565b62000211565b620000dd620002e3565b604051620000b3919062000552565b620000dd62000347565b6200009f62000107366004620004ed565b620003a9565b6000338484846040516200012190620003ba565b620001309493929190620005e9565b604051809103906000f0801580156200014d573d6000803e3d6000fd5b506001805480820182556000919091527fb10e2d527612073b26eecdfd717e6a320cf44b4afac2b0732d9fcbe2b7fa0cf60180546001600160a01b0319166001600160a01b03831617905560405190915081907fe9dc910c662b56e0faea9d1ae0906792187e745e068223676f6074a7955e90cc90620001d7908390339089908990899062000627565b60405180910390a15050505050565b60008181548110620001f757600080fd5b6000918252602090912001546001600160a01b0316905081565b60003383836040516200022490620003c8565b62000232939291906200066e565b604051809103906000f0801580156200024f573d6000803e3d6000fd5b50600080546001810182559080527f290decd9548b62a8d60345a988386fc84ba6bc95484008f6362f93160ef3e5630180546001600160a01b0319166001600160a01b03831617905560405190915081907f8aa065902e6578cf20a2e4ebdaca668ae46d2b037cedabe830e4aeb71a03e26090620002d5908390339088908890620006a0565b60405180910390a150505050565b606060008054806020026020016040519081016040528092919081815260200182805480156200033d57602002820191906000526020600020905b81546001600160a01b031681526001909101906020018083116200031e575b5050505050905090565b606060018054806020026020016040519081016040528092919081815260200182805480156200033d576020028201919060005260206000209081546001600160a01b031681526001909101906020018083116200031e575050505050905090565b60018181548110620001f757600080fd5b6111e780620006e083390190565b610bfe80620018c783390190565b634e487b7160e01b600052604160045260246000fd5b600082601f830112620003fe57600080fd5b813567ffffffffffffffff808211156200041c576200041c620003d6565b604051601f8301601f19908116603f01168101908282118183101715620004475762000447620003d6565b816040528381528660208588010111156200046157600080fd5b836020870160208301376000602085830101528094505050505092915050565b6000806000606084860312156200049757600080fd5b83359250602084013567ffffffffffffffff811115620004b657600080fd5b620004c486828701620003ec565b92505060408401356001600160a01b0381168114620004e257600080fd5b809150509250925092565b6000602082840312156200050057600080fd5b5035919050565b600080604083850312156200051b57600080fd5b82359150602083013567ffffffffffffffff8111156200053a57600080fd5b6200054885828601620003ec565b9150509250929050565b6020808252825182820181905260009190848201906040850190845b81811015620005955783516001600160a01b0316835292840192918401916001016200056e565b50909695505050505050565b6000815180845260005b81811015620005c957602081850181015186830182015201620005ab565b506000602082860101526020601f19601f83011685010191505092915050565b600060018060a01b03808716835285602084015260806040840152620006136080840186620005a1565b915080841660608401525095945050505050565b600060018060a01b038088168352808716602084015285604084015260a060608401526200065960a0840186620005a1565b91508084166080840152509695505050505050565b60018060a01b0384168152826020820152606060408201526000620006976060830184620005a1565b95945050505050565b6001600160a01b0385811682528416602082015260408101839052608060608201819052600090620006d590830184620005a1565b969550505050505056fe60806040523480156200001157600080fd5b50604051620011e7380380620011e78339810160408190526200003491620000df565b600180546001600160a01b0319166001600160a01b0386161790556000839055600262000062838262000277565b50600380546001600160a01b0319166001600160a01b039290921691909117905550506000600555506006805460ff1916600117905562000343565b6001600160a01b0381168114620000b457600080fd5b50565b634e487b7160e01b600052604160045260246000fd5b8051620000da816200009e565b919050565b60008060008060808587031215620000f657600080fd5b845162000103816200009e565b60208681015160408801519296509450906001600160401b03808211156200012a57600080fd5b818801915088601f8301126200013f57600080fd5b815181811115620001545762000154620000b7565b604051601f8201601f19908116603f011681019083821181831017156200017f576200017f620000b7565b816040528281528b868487010111156200019857600080fd5b600093505b82841015620001bc57848401860151818501870152928501926200019d565b6000868483010152809750505050505050620001db60608601620000cd565b905092959194509250565b600181811c90821680620001fb57607f821691505b6020821081036200021c57634e487b7160e01b600052602260045260246000fd5b50919050565b601f82111562000272576000816000526020600020601f850160051c810160208610156200024d5750805b601f850160051c820191505b818110156200026e5782815560010162000259565b5050505b505050565b81516001600160401b03811115620002935762000293620000b7565b620002ab81620002a48454620001e6565b8462000222565b602080601f831160018114620002e35760008415620002ca5750858301515b600019600386901b1c1916600185901b1785556200026e565b600085815260208120601f198616915b828110156200031457888601518255948401946001909101908401620002f3565b5085821015620003335787850151600019600388901b60f8161c191681555b5050505050600190811b01905550565b610e9480620003536000396000f3fe608060405234801561001057600080fd5b50600436106100b45760003560e01c806342e94c901161007157806342e94c90146101415780636d8dc5ea1461016157806377c9366214610174578063b9da4a421461019f578063c1cbbca7146101b2578063fc0c546a146101c557600080fd5b8063039af9eb146100b957806306fdde03146100e4578063278ecde1146100f95780632e1a7d4d1461010e57806337c089231461012157806342cde4e814610138575b600080fd5b6100cc6100c7366004610af7565b6101d8565b6040516100db93929190610b56565b60405180910390f35b6100ec610296565b6040516100db9190610b7f565b61010c610107366004610af7565b610324565b005b61010c61011c366004610af7565b6104f6565b61012a60055481565b6040519081526020016100db565b61012a60005481565b61012a61014f366004610b92565b60046020526000908152604090205481565b61010c61016f366004610bd8565b610778565b600154610187906001600160a01b031681565b6040516001600160a01b0390911681526020016100db565b61010c6101ad366004610b92565b610870565b61010c6101c0366004610af7565b61092c565b600354610187906001600160a01b031681565b600981815481106101e857600080fd5b6000918252602090912060039091020180546001820180549193509061020d90610c9c565b80601f016020809104026020016040519081016040528092919081815260200182805461023990610c9c565b80156102865780601f1061025b57610100808354040283529160200191610286565b820191906000526020600020905b81548152906001019060200180831161026957829003601f168201915b5050505050908060020154905083565b600280546102a390610c9c565b80601f01602080910402602001604051908101604052809291908181526020018280546102cf90610c9c565b801561031c5780601f106102f15761010080835404028352916020019161031c565b820191906000526020600020905b8154815290600101906020018083116102ff57829003601f168201915b505050505081565b600054600554106103b45760405162461bcd60e51b815260206004820152604960248201527f5468652063616d706169676e206861732072656163686564206974732074687260448201527f6573686f6c642c20736f20726566756e647320617265206e6f206c6f6e67657260648201526820706f737369626c6560b81b608482015260a4015b60405180910390fd5b33600090815260046020526040902054808211156104245760405162461bcd60e51b815260206004820152602760248201527f526566756e6420616d6f756e74206973206d6f7265207468616e20636f6e747260448201526634b13aba34b7b760c91b60648201526084016103ab565b61042e8282610cec565b3360008181526004602081905260409182902093909355600354905163a9059cbb60e01b815292830191909152602482018490526001600160a01b03169063a9059cbb906044016020604051808303816000875af1158015610494573d6000803e3d6000fd5b505050506040513d601f19601f820116820180604052508101906104b89190610cff565b5060408051338152602081018490527fa171b6942063c6f2800ce40a780edce37baa2b618571b11eedd1e69e626e7d76910160405180910390a15050565b6001546001600160a01b0316331461055c5760405162461bcd60e51b815260206004820152602360248201527f4f6e6c79207468652073706f6e736f722063616e2077697468647261772066756044820152626e647360e81b60648201526084016103ab565b60005460055410156105ed5760405162461bcd60e51b815260206004820152604e60248201527f417320746865206f7267616e697a65722c20796f752063616e206f6e6c79207760448201527f69746864726177206f6e63652074686520636f6e747269627574696f6e20746860648201526d1c995cda1bdb19081a5cc81b595d60921b608482015260a4016103ab565b6003546040516370a0823160e01b81523060048201526001600160a01b03909116906370a0823190602401602060405180830381865afa158015610635573d6000803e3d6000fd5b505050506040513d601f19601f820116820180604052508101906106599190610d21565b8111156106b45760405162461bcd60e51b815260206004820152602360248201527f4d6f72652066756e647320726571756573746564207468616e20617661696c61604482015262626c6560e81b60648201526084016103ab565b60035460015460405163a9059cbb60e01b81526001600160a01b0391821660048201526024810184905291169063a9059cbb906044016020604051808303816000875af1158015610709573d6000803e3d6000fd5b505050506040513d601f19601f8201168201806040525081019061072d9190610cff565b50600154604080516001600160a01b039092168252602082018390527feaff4b37086828766ad3268786972c0cd24259d4c87a80f9d3963a3c3d999b0d91015b60405180910390a150565b6001546001600160a01b031633146107d25760405162461bcd60e51b815260206004820152601e60248201527f4f6e6c79207468652073706f6e736f722063616e20616464207469657273000060448201526064016103ab565b604080516060810182528481526020810184815291810183905260098054600181018255600091909152815160039091027f6e1540171b6c0c960b71a7020d9f60077f6af931a8bbf590da0223dacf75c7af81019182559251919290917f6e1540171b6c0c960b71a7020d9f60077f6af931a8bbf590da0223dacf75c7b09091019061085e9082610d8b565b50604082015181600201555050505050565b6001546001600160a01b031633146108e75760405162461bcd60e51b815260206004820152603460248201527f4f6e6c79207468652063616d706169676e2073706f6e736f722063616e20617560448201527374686f72697a6520636f6e7472696275746f727360601b60648201526084016103ab565b6108f2600782610a8a565b506040516001600160a01b03821681527f21732f0772556fe8cfb64e110a834a1a473319ec878a2cbe6c90e165e1b95cb79060200161076d565b60065460ff1661099b5760405162461bcd60e51b815260206004820152603460248201527f5468652063616d706169676e2069736e277420616363657074696e6720636f6e604482015273747269627574696f6e73207269676874206e6f7760601b60648201526084016103ab565b6003546040516323b872dd60e01b8152336004820152306024820152604481018390526001600160a01b03909116906323b872dd906064016020604051808303816000875af11580156109f2573d6000803e3d6000fd5b505050506040513d601f19601f82011682018060405250810190610a169190610cff565b503360009081526004602052604081208054839290610a36908490610e4b565b925050819055508060056000828254610a4f9190610e4b565b909155505060408051338152602081018390527f1bb460ccaaf70fbacfec17a376f8acbd278c1405590ffcc8ebe4b88daf4f64ad910161076d565b6000610a9f836001600160a01b038416610aa8565b90505b92915050565b6000818152600183016020526040812054610aef57508154600181810184556000848152602080822090930184905584548482528286019093526040902091909155610aa2565b506000610aa2565b600060208284031215610b0957600080fd5b5035919050565b6000815180845260005b81811015610b3657602081850181015186830182015201610b1a565b506000602082860101526020601f19601f83011685010191505092915050565b838152606060208201526000610b6f6060830185610b10565b9050826040830152949350505050565b602081526000610a9f6020830184610b10565b600060208284031215610ba457600080fd5b81356001600160a01b0381168114610bbb57600080fd5b9392505050565b634e487b7160e01b600052604160045260246000fd5b600080600060608486031215610bed57600080fd5b83359250602084013567ffffffffffffffff80821115610c0c57600080fd5b818601915086601f830112610c2057600080fd5b813581811115610c3257610c32610bc2565b604051601f8201601f19908116603f01168101908382118183101715610c5a57610c5a610bc2565b81604052828152896020848701011115610c7357600080fd5b826020860160208301376000602084830101528096505050505050604084013590509250925092565b600181811c90821680610cb057607f821691505b602082108103610cd057634e487b7160e01b600052602260045260246000fd5b50919050565b634e487b7160e01b600052601160045260246000fd5b81810381811115610aa257610aa2610cd6565b600060208284031215610d1157600080fd5b81518015158114610bbb57600080fd5b600060208284031215610d3357600080fd5b5051919050565b601f821115610d86576000816000526020600020601f850160051c81016020861015610d635750805b601f850160051c820191505b81811015610d8257828155600101610d6f565b5050505b505050565b815167ffffffffffffffff811115610da557610da5610bc2565b610db981610db38454610c9c565b84610d3a565b602080601f831160018114610dee5760008415610dd65750858301515b600019600386901b1c1916600185901b178555610d82565b600085815260208120601f198616915b82811015610e1d57888601518255948401946001909101908401610dfe565b5085821015610e3b5787850151600019600388901b60f8161c191681555b5050505050600190811b01905550565b80820180821115610aa257610aa2610cd656fea26469706673582212203132c13d921503d783983d046dd1bb2d885245d7c91eaca18ebeaa72ce6ed4ab64736f6c6343000817003360806040523480156200001157600080fd5b5060405162000bfe38038062000bfe833981016040819052620000349162000094565b600180546001600160a01b0319166001600160a01b0385161790556000829055600262000062828262000224565b5050600060045550506005805460ff19166001179055620002f0565b634e487b7160e01b600052604160045260246000fd5b600080600060608486031215620000aa57600080fd5b83516001600160a01b0381168114620000c257600080fd5b60208581015160408701519295509350906001600160401b0380821115620000e957600080fd5b818701915087601f830112620000fe57600080fd5b8151818111156200011357620001136200007e565b604051601f8201601f19908116603f011681019083821181831017156200013e576200013e6200007e565b816040528281528a868487010111156200015757600080fd5b600093505b828410156200017b57848401860151818501870152928501926200015c565b60008684830101528096505050505050509250925092565b600181811c90821680620001a857607f821691505b602082108103620001c957634e487b7160e01b600052602260045260246000fd5b50919050565b601f8211156200021f576000816000526020600020601f850160051c81016020861015620001fa5750805b601f850160051c820191505b818110156200021b5782815560010162000206565b5050505b505050565b81516001600160401b038111156200024057620002406200007e565b620002588162000251845462000193565b84620001cf565b602080601f831160018114620002905760008415620002775750858301515b600019600386901b1c1916600185901b1785556200021b565b600085815260208120601f198616915b82811015620002c157888601518255948401946001909101908401620002a0565b5085821015620002e05787850151600019600388901b60f8161c191681555b5050505050600190811b01905550565b6108fe80620003006000396000f3fe6080604052600436106100865760003560e01c806342cde4e81161005957806342cde4e81461011c57806342e94c901461013257806377c936621461015f578063b9da4a4214610197578063d7bb99ba146101b757600080fd5b806306fdde031461008b578063278ecde1146100b65780632e1a7d4d146100d857806337c08923146100f8575b600080fd5b34801561009757600080fd5b506100a06101bf565b6040516100ad91906107ba565b60405180910390f35b3480156100c257600080fd5b506100d66100d1366004610809565b61024d565b005b3480156100e457600080fd5b506100d66100f3366004610809565b6103d3565b34801561010457600080fd5b5061010e60045481565b6040519081526020016100ad565b34801561012857600080fd5b5061010e60005481565b34801561013e57600080fd5b5061010e61014d366004610822565b60036020526000908152604090205481565b34801561016b57600080fd5b5060015461017f906001600160a01b031681565b6040516001600160a01b0390911681526020016100ad565b3480156101a357600080fd5b506100d66101b2366004610822565b6105ab565b6100d6610667565b600280546101cc90610852565b80601f01602080910402602001604051908101604052809291908181526020018280546101f890610852565b80156102455780601f1061021a57610100808354040283529160200191610245565b820191906000526020600020905b81548152906001019060200180831161022857829003601f168201915b505050505081565b600054600454106102dd5760405162461bcd60e51b815260206004820152604960248201527f5468652063616d706169676e206861732072656163686564206974732074687260448201527f6573686f6c642c20736f20726566756e647320617265206e6f206c6f6e67657260648201526820706f737369626c6560b81b608482015260a4015b60405180910390fd5b336000908152600360205260409020548082111561034d5760405162461bcd60e51b815260206004820152602760248201527f526566756e6420616d6f756e74206973206d6f7265207468616e20636f6e747260448201526634b13aba34b7b760c91b60648201526084016102d4565b61035782826108a2565b33600081815260036020526040808220939093559151909184156108fc02918591818181858888f19350505050158015610395573d6000803e3d6000fd5b5060408051338152602081018490527fa171b6942063c6f2800ce40a780edce37baa2b618571b11eedd1e69e626e7d76910160405180910390a15050565b6001546001600160a01b031633146104395760405162461bcd60e51b815260206004820152602360248201527f4f6e6c79207468652073706f6e736f722063616e2077697468647261772066756044820152626e647360e81b60648201526084016102d4565b60005460045410156104ca5760405162461bcd60e51b815260206004820152604e60248201527f417320746865206f7267616e697a65722c20796f752063616e206f6e6c79207760448201527f69746864726177206f6e63652074686520636f6e747269627574696f6e20746860648201526d1c995cda1bdb19081a5cc81b595d60921b608482015260a4016102d4565b478111156105265760405162461bcd60e51b815260206004820152602360248201527f4d6f72652066756e647320726571756573746564207468616e20617661696c61604482015262626c6560e81b60648201526084016102d4565b6001546040516001600160a01b039091169082156108fc029083906000818181858888f19350505050158015610560573d6000803e3d6000fd5b50600154604080516001600160a01b039092168252602082018390527feaff4b37086828766ad3268786972c0cd24259d4c87a80f9d3963a3c3d999b0d91015b60405180910390a150565b6001546001600160a01b031633146106225760405162461bcd60e51b815260206004820152603460248201527f4f6e6c79207468652063616d706169676e2073706f6e736f722063616e20617560448201527374686f72697a6520636f6e7472696275746f727360601b60648201526084016102d4565b61062d60068261074d565b506040516001600160a01b03821681527f21732f0772556fe8cfb64e110a834a1a473319ec878a2cbe6c90e165e1b95cb7906020016105a0565b60055460ff166106d65760405162461bcd60e51b815260206004820152603460248201527f5468652063616d706169676e2069736e277420616363657074696e6720636f6e604482015273747269627574696f6e73207269676874206e6f7760601b60648201526084016102d4565b33600090815260036020526040812080543492906106f59084906108b5565b92505081905550346004600082825461070e91906108b5565b9091555050604080513381523460208201527f1bb460ccaaf70fbacfec17a376f8acbd278c1405590ffcc8ebe4b88daf4f64ad910160405180910390a1565b6000610762836001600160a01b03841661076b565b90505b92915050565b60008181526001830160205260408120546107b257508154600181810184556000848152602080822090930184905584548482528286019093526040902091909155610765565b506000610765565b60006020808352835180602085015260005b818110156107e8578581018301518582016040015282016107cc565b506000604082860101526040601f19601f8301168501019250505092915050565b60006020828403121561081b57600080fd5b5035919050565b60006020828403121561083457600080fd5b81356001600160a01b038116811461084b57600080fd5b9392505050565b600181811c9082168061086657607f821691505b60208210810361088657634e487b7160e01b600052602260045260246000fd5b50919050565b634e487b7160e01b600052601160045260246000fd5b818103818111156107655761076561088c565b808201808211156107655761076561088c56fea2646970667358221220ea0ec309eb96c9f840c37a318b578cafc7ae7719a32b81c24454f70cb70dcd2864736f6c63430008170033a2646970667358221220e8a0853f4c8415687930a796b2ea4519bdc14f934b9b85a9d3a3b825ad6850dd64736f6c63430008170033","linkReferences":{}},"methodIdentifiers":{"createCampaign(uint256,string)":"4220d656","createCampaignERC20(uint256,string,address)":"051fda22","deployedCampaigns(uint256)":"339d50a5","deployedERC20Campaigns(uint256)":"e0cdb207","getDeployedCampaigns()":"4acb9d4f","getDeployedERC20Campaigns()":"c802d5c3"},"id":30}